:020000040800F2
:10000000981D0020B5070008890500088B05000829
:100010008F05000893050008970500080000000000
:100020000000000000000000000000009B05000828
:100030009D050008000000009F050008A1050008BC
:10004000CF070008CF070008CF070008CF07000838
:10005000CF070008CF070008CF070008CF07000828
:10006000CF070008CF070008CF070008CF07000818
:10007000CF070008CF070008CF070008CF07000808
:10008000CF070008CF070008CF070008CF070008F8
:10009000CF070008CF070008CF070008CF070008E8
:1000A000CF070008CF070008CF070008CF070008D8
:1000B000CF070008CF070008CF070008CF070008C8
:1000C000CF070008CF070008CF070008CF070008B8
:1000D000CF070008CF0700084D330008CF070008FE
:1000E000CF070008CF070008CF070008CF07000898
:1000F000CF070008CF070008CF070008CF07000888
:10010000CF070008CF070008CF070008CF07000877
:100110008104000889300008CF070008CF070008D5
:10012000CF070008CF070008CF070008CF07000857
:10013000CF070008CF070008CF070008CF07000847
:10014000CF070008CF070008CF070008CF07000837
:10015000CF070008CF070008CF070008CF07000827
:10016000CF070008CF070008CF070008CF07000817
:10017000CF070008CF070008CF070008CF07000807
:10018000CF070008CF07000800F002F800F092F84F
:100190000AA090E8000C82448344AAF10107DA45E2
:1001A00001D100F087F8AFF2090EBAE80F0013F0A2
:1001B000010F18BFFB1A43F00103184794580000C1
:1001C000B4580000103A24BF78C878C1FAD8520752
:1001D00024BF30C830C144BF04680C6070470000C1
:1001E0000023002400250026103A28BF78C1FBD840
:1001F000520728BF30C148BF0B6070476E2903F01B
:10020000C185702903F00387662905F09F8265295F
:1002100005F09C82672905F09982612905F0988292
:1002200003681B0A28BF41F08001692903F06E852D
:10023000642903F06B85752903F068856F2903F045
:100240009086782903F0CF86E92903F02B86E429EC
:1002500003F02886F52903F02586EF2903F08D8623
:10026000F82903F0CE860368DB0928BF41F080013E
:10027000632904F0D183732904F0D683E32904F0C1
:10028000E183F32904F0E683002070471FB505F0F1
:1002900058FA04F031FC04000020002105F02EF98A
:1002A000401C60600020002105F012F9E0601FBDD5
:1002B00010B510BD04F0F2FB1146FFF7E7FF00F0A8
:1002C00034F804F0CFFC03B4FFF7F2FF03BC02F0F4
:1002D00077F8000038B5002000909D4800684FF482
:1002E0007A72B0FBF2F1481EB0F1807F00D31BE0C0
:1002F000481E4FF0E022506150170F22002807DA05
:1003000013071D0E934B00F00F04241F1D5503E02F
:1003100013071C0E904B1C5400BF00204FF0E0222E
:1003200090610720106100BF38BDFFF7D3FFA82000
:1003300001F0C4FF4FF4A06000F05CFA02F014FB7F
:10034000642002F01DF803F01FF903F0E9FB03F04D
:100350006BFB03F09DF803F055FA03F03BFB4FF401
:10036000FA7002F00DF88AE07C484078012804D148
:100370000021084602F0F6FB23E078488078012847
:1003800004D10A21084602F0EDFB1AE07348C07858
:10039000012805D16FF00901084602F0E3FB10E0E7
:1003A0006E480079012804D10A21002002F0DAFB0E
:1003B00007E06A484079012803D100210A2002F0B1
:1003C000D1FB66488079012802D103F063FA26E068
:1003D0006248C079012803D1022003F05BFA1EE0D5
:1003E0005E48007A012803D1032003F053FA16E097
:1003F0005A48407A012803D1042003F04BFA0EE05A
:100400005648807A012803D1052003F043FA06E01C
:100410005248C07A012802D1062003F03BFA4F4827
:10042000007B012802D103F0C5F905E04B48407B71
:10043000012801D103F0CCF94848807B012802D182
:1004400047A003F07AF84548C07B012803D146A0B5
:1004500003F03FFB06E04148007C012802D143A0A5
:1004600003F037FB3D48407C012802D103F0CDFA70
:1004700005E03A48807C012801D103F0CCFA73E70B
:1004800070B540F225513A4801F0CEFE00285DD00B
:1004900040F22551364801F002FF354801F002FED6
:1004A000C5B23448057001203349087033480078DC
:1004B00068B9A52D0BD1324801780078401C304A2C
:1004C00010703048455401202C4908703EE02B48FC
:1004D000007801280FD12A4801780078401C284A6A
:1004E0001070284845541046007815282EDD03204A
:1004F000224908702AE021480078032818D10024F6
:1005000005E02048005D15490855601CC4B2192C4F
:10051000F7DB00201949087019490870002404E02D
:10052000002018490855601CC4B2192CF8DB0DE0F6
:1005300000201249087012490870002404E00020CD
:1005400010490855601CC4B2192CF8DB002070BD9E
:100550009400002018ED00E000E400E0F800002026
:100560002441414121000000310D0A00320D0A00F2
:10057000004C0040910000209000002093000020DB
:100580009200002011010020704700BFFEE700BF6D
:10059000FEE700BFFEE700BFFEE770477047704709
:1005A000704700000CB5002001900090764800686C
:1005B00040F480307449086000BF7348006800F45C
:1005C000003000900198401C0190009818B90198E3
:1005D000B0F5A04FF1D16C48006800F4003010B1C4
:1005E0000120009001E0002000900098012846D1F1
:1005F00065484030006840F08050634940310860F1
:100600006248006840F44040604908605E48083035
:1006100000685D49083108600846006840F4004001
:1006200008600846006840F4A05008605848091F58
:100630000860081F006840F08070091F086000BF54
:100640005148006800F000700028F9D040F20570B1
:10065000504908604C480830006820F003004A49BF
:10066000083108600846006840F00200086000BFDA
:1006700045480830006800F00C000828F8D10CBD8F
:1006800010B54548006840F47000434908603E4892
:10069000006840F001003C49086000203A490831F8
:1006A0000860394800683D490840374908603C48BF
:1006B000091D0860081F006820F48020091F0860D9
:1006C000002031490C310860FFF76CFF4FF00060EB
:1006D00031498039086010BD70B500200022022326
:1006E00000240221284D08352D6805F00C0020B1AA
:1006F000042806D0082834D107E02A4D2A4E356058
:1007000033E02A4D284E35602FE01F4D2D1D2D68FA
:10071000C5F380541C4D2D1D2D6805F03F0154B1CB
:10072000224DB5FBF1F5184E361D3668C6F3881616
:1007300005FB06F209E01B4DB5FBF1F5124E361D27
:100740003668C6F3881605FB06F20F4D2D1D2D6881
:10075000C5F301456D1C6B00B2FBF3F5124E35601D
:1007600003E0104D104E356000BF00BF064D083548
:100770002D68C5F303150E4E705D0B4D2D68C540F9
:10078000094E356070BD0000003802400070004026
:1007900008544007003C024088ED00E0FFFFF6FEF1
:1007A000103000240024F4009400002000127A008D
:1007B000980000200948804709480047FEE7FEE707
:1007C000FEE7FEE7FEE7FEE7FEE7FEE7FEE7FEE701
:1007D00004480549054A064B704700008106000899
:1007E0008901000898170020981D00209819002002
:1007F0009819002032490143324A1160704770B5A0
:10080000002100230F22C4781CB32E4C246804F46A
:10081000E064C4F5E064C4F30721C1F10404E3B269
:100820000A4144789C40E1B28478144021430C078B
:10083000210E254C05786155047804F01F0501242C
:10084000AC4005786D11AD0005F1E025C5F800411B
:1008500009E0047804F01F050124AC401B4D067824
:10086000761145F8264070BD194A0A400243154BDF
:100870001B1F1A60704739B1124A121D12680243D9
:10088000104B1B1D1A6006E00E4A121D12688243AF
:100890000C4B1B1D1A607047042808D14FF0E02153
:1008A000096941F004014FF0E022116107E04FF0C7
:1008B000E021096921F004014FF0E0221161704745
:1008C0000000FA050CED00E000E400E080E100E04B
:1008D00080FFFF1F10B504469848844208D10121CB
:1008E000084600F086FB0021012000F082FB76E044
:1008F0009348844208D10121022000F07AFB0021B4
:10090000022000F076FB6AE08E48844208D1012183
:10091000042000F06EFB0021042000F06AFB5EE082
:100920008948844208D10121082000F062FB00219F
:10093000082000F05EFB52E08448844208D1012187
:10094000102000F056FB0021102000F052FB46E082
:100950007F48844208D10121202000F04AFB002179
:10096000202000F046FB3AE07A48844208D1012179
:10097000402000F03EFB0021402000F03AFB2EE03A
:100980007548844208D10121802000F032FB00210B
:10099000802000F02EFB22E07048844208D1012123
:1009A000801500F026FB0021A01500F022FB16E0C8
:1009B0006B48844208D10121401500F01AFB002148
:1009C000601500F016FB0AE06648844207D1012159
:1009D000001500F00EFB0021201500F00AFB10BDF1
:1009E000F0B50A4600210023002400BF3DE00125A8
:1009F00005FA01F3156805EA03049C4234D1056841
:100A00004F000326BE40B543056015794E00B54042
:100A10000668354305601579012D02D01579022D40
:100A200016D185684F000326BE40B54385605579D1
:100A30004E00B540866835438560456801268E4086
:100A4000B5434560456896798E40B6B235434560FA
:100A5000C5684F000326BE40B543C560D5794E003A
:100A6000B540C6683543C560491C1029BFD3F0BDE9
:100A70004FF6FF7101600021017141718171C171F7
:100A8000704708B54FF480320092009A0A430092F2
:100A9000009AC261C161009AC261C2690092C269D2
:100AA000009208BD0246002013690B400BB10120E3
:100AB00000E0002070470146086980B27047024696
:100AC000002053690B400BB1012000E0002070476B
:100AD0000146486980B2704701837047418370477F
:100AE0000AB1018300E04183704741617047426968
:100AF0004A4042617047F0B5002300244D07ED0ED7
:100B000002FA05F3CE1000F1200555F826504E07E5
:100B1000F70E0F26BE40B543CF1000F1200646F871
:100B20002750CE1000F1200555F8265045EA030461
:100B3000CE1000F1200545F82640F0BD000002402F
:100B40000004024000080240000C02400010024075
:100B50000014024000180240001C02400020024025
:100B60000024024000280240F948006840F00100DB
:100B7000F74908600020F64908310860F448006829
:100B8000F4490840F2490860F348091D0860F34839
:100B9000EF4984310860F0481038091D0860EC48BE
:100BA000006820F48020EA4908600020E8490C3100
:100BB0000860E7498C31086070470021E44A921CC4
:100BC000117011460870704710B5014600220023CD
:100BD00000204A11012A02D1DD4C236808E0022AD4
:100BE00003D1DB4C7034236802E0D94C74342368A1
:100BF00001F01F02012494401C400CB1012000E0D0
:100C0000002010BD38B5002000900024002500BF52
:100C10003120FFF7D9FF05460098401C009000984E
:100C2000B0F5A04F01D0002DF2D03120FFF7CCFF5E
:100C300008B1012400E00024204638BD0146002010
:100C4000C34A106820F0F80040EAC1001060704705
:100C5000C349086070470021BD4A7032117011709D
:100C6000012802D004280AD104E00121B84A7032D8
:100C7000117005E00521B64A7032117000E000BF26
:100C800000BF7047B7490860704770B5049C41EADF
:100C900082150126C6EB530645EA0645054345EA9B
:100CA0000465AB4E361D356070BDAD4908667047B2
:100CB000820142EA0172A64B84331A607047A84948
:100CC0008866704710B5830143EA016343EA027303
:100CD0009F4C8834236010BDA14908677047A04924
:100CE000C864704702460020994B0833186820F00A
:100CF000EC6042EA01031843954B083318607047D3
:100D000002460020924B0833186820F0784042EAEF
:100D1000010318438E4B08331860704701460020CA
:100D20008B4A0832106820F00300084310607047B7
:100D300087480830006800F00C007047014600202A
:100D4000834A0832106820F0F000084310607047B2
:100D5000014600207E4A0832106820F4E050084323
:100D60001060704701460020794A0832106820F46C
:100D7000604040EAC10010607047F0B500210022D9
:100D80000024022500260223714F08373F6807F030
:100D90000C0121B1042905D0082937D105E0724F93
:100DA000076036E0714F076033E0694F3F1D3F68D1
:100DB000C7F38056664F3F1D3F6807F03F036EB193
:100DC0006A4FB7FBF3F7DFF888C10CF1040CDCF8CD
:100DD00000C0CCF3881C07FB0CF40CE0624FB7FB9F
:100DE000F3F7DFF86CC10CF1040CDCF800C0CCF3B5
:100DF000881C07FB0CF4564F3F1D3F68C7F30147A3
:100E00007F1C7D00B4FBF5F7076002E0564F0760DA
:100E100000BF00BF4E4F08373F6807F0F0010909D7
:100E2000534F7A5C0768D7404760494F08373F689F
:100E300007F4E051890A4E4F7A5C4768D7408760D3
:100E4000434F08373F6807F46041490B484F7A5CCD
:100E50004768D740C760F0BD002100F44072B2F58A
:100E6000407F0AD13A4A0832116821F4F811414A08
:100E700002401143364A08321160354A7032126816
:100E8000C0F30B031A43324B70331A607047354975
:100E90004439086070473349403908607047364923
:100EA0000860704701460020294A8C32106820F003
:100EB0001F004A1E1043264A8C32106070470146BC
:100EC0000020234A8C32106820F4F8504A1E40EA71
:100ED00002201F4A8C3210607047014600201C4AD5
:100EE0008C32106820F440100843106070470146AF
:100EF0000020174A8C32106820F44000084310602C
:100F0000704701460020124A8C32106820F44030AD
:100F100008431060704719490860704739B10C4A9E
:100F20003032126802430A4B30331A6006E0084A36
:100F3000303212688243064B30331A607047F9B181
:100F4000034A343212680243014B34331A601CE006
:100F500000380240FFFFF6EA103000240030002085
:100F600000004742800E47420024F40000127A003D
:100F7000A8000020FFFCFF0F5C014742E011474240
:100F80008F4A126882438E4B1A60704739B18C4A7F
:100F9000121D126802438A4B1B1D1A6006E0884A24
:100FA000121D12688243864B1B1D1A60704739B1AF
:100FB000834A0C3212680243814B0C331A6006E0FC
:100FC0007F4A0C32126882437D4B0C331A607047A3
:100FD00039B17B4A103212680243794B10331A60E0
:100FE00006E0774A103212688243754B10331A605C
:100FF000704739B1724A243A12680243704B243B5D
:101000001A6006E06E4A243A126882436C4B243B15
:101010001A60704739B16A4A203A12680243684B35
:10102000203B1A6006E0664A203A12688243644B0D
:10103000203B1A60704739B1614A1C3A126802437A
:101040005F4B1C3B1A6006E05D4A1C3A1268824303
:101050005B4B1C3B1A60704739B1594A143A12680D
:101060000243574B143B1A6006E0554A143A126883
:101070008243534B143B1A60704739B1504A103ABF
:10108000126802434E4B103B1A6006E04C4A103A7D
:10109000126882434A4B103B1A60704739B1484A84
:1010A0001C3212680243464B1C331A6006E0444A65
:1010B0001C3212688243424B1C331A60704739B1AC
:1010C0003F4A2032126802433D4B20331A6006E04B
:1010D0003B4A203212688243394B20331A607047F2
:1010E00039B1374A243212680243354B24331A602F
:1010F00006E0334A243212688243314B24331A60AB
:10110000704739B12E4A2C32126802432C4B2C33D3
:101110001A6006E02A4A2C3212688243284B2C338C
:101120001A60704739B1264A303212680243244BA4
:1011300030331A6006E0224A303212688243204B74
:1011400030331A607047012808D11D493C310968C5
:1011500041F008011A4A3C32116007E018493C315D
:10116000096821F00801164A3C321160704739B114
:10117000134A273A12780243114B273B1A7006E0B4
:101180000F4A273A127882430D4B273B1A7070475B
:101190000B484030006840F08070094940310860D9
:1011A000704701460020064A283A12680A400AB1F0
:1011B000012000E00020704701492639087070477F
:1011C0003438024010B50446FE48844208D101215B
:1011D0000846FFF752FF00210120FFF74EFF9DE078
:1011E000B4F1804F08D101210846FFF735FF0021F7
:1011F0000120FFF731FF91E0F348844208D101213B
:101200000220FFF729FF00210220FFF725FF85E0DC
:10121000EE48844208D101210420FFF71DFF002180
:101220000420FFF719FF79E0E948844208D1012141
:101230000820FFF711FF00210820FFF70DFF6DE0E8
:10124000E448844208D101211020FFF705FF002166
:101250001020FFF701FF61E0DF48844208D101213F
:101260002020FFF7F9FE00212020FFF7F5FE55E0D2
:10127000DA48844208D101210220FFF7FEFE002156
:101280000220FFF7FAFE49E0D548844209D1012146
:101290000804FFF7F2FE00214FF48030FFF7EDFE67
:1012A0003CE0D048844209D101214804FFF7E5FE23
:1012B00000214FF40030FFF7E0FE2FE0CA488442DF
:1012C00009D101218804FFF7D8FE00214FF48020C6
:1012D000FFF7D3FE22E0C548844208D10121402017
:1012E000FFF7BAFE00214020FFF7B6FE16E0C04827
:1012F000844208D101218020FFF7AEFE002180202A
:10130000FFF7AAFE0AE0BB48844207D101218015FD
:10131000FFF7A2FE0021A015FFF79EFE10BD0022E0
:101320000288A84B98420ED0AC4B98420BD0B0F13B
:10133000804F08D0A44B984205D0A44B984202D0CD
:10134000A34B984204D14FF68F731A404B881A432F
:10135000A04B984207D0A04B984204D04FF6FF43D1
:101360001A400B891A4302804B68C3620B880385BD
:10137000944B984202D0994B984201D18B7A0386C4
:101380000123838270474FF0FF31416000210180CB
:1013900001814180817270470185828270470A46CF
:1013A000002101884FF68F73194011430180704767
:1013B00041627047C16270470146486A7047014602
:1013C000088D704721B1028842F00202028004E0D9
:1013D00002884FF6FD731A400280704721B10288DF
:1013E00042F00402028004E002884FF6FB731A40C8
:1013F0000280704721B1028842F08002028004E03E
:1014000002884FF67F731A400280704702884FF6B9
:10141000F7731A40028002880A43028070470288EC
:101420004FF6FF431A40028002880A430280704749
:1014300021B1028842F00102028004E002884FF6E6
:10144000FE731A400280704770B50024002200230A
:10145000058C4FF6FE7635400584028C8388048B1C
:101460004FF68F752C40B51E2C400D882C43751EF1
:101470002A408D892A434D882A43524DA84202D0E2
:10148000564DA84213D14FF6F7752A40CD892A430D
:101490004FF6FB752A408D882A434FF6FF652B4097
:1014A0004FF6FF552B400D8A2B434D8A2B438380EB
:1014B00004838D684563028470BD70B500240022EA
:1014C0000023058C4FF6EF7635400584028C838827
:1014D000048B48F6FF752C404FF6FF452C400D88D5
:1014E0004FF6FF7606EA05252C434FF6DF752A40B6
:1014F0008D8906EA05152A434D8806EA05152A4313
:10150000304DA84202D0354DA8421DD14FF67F750F
:101510002A40CD894FF6FF7606EA05152A434FF695
:10152000BF752A408D8806EA05152A434FF6FF3518
:101530002B404FF2FF752B400D8A06EA85052B43A1
:101540004D8A06EA85052B43838004838D68856375
:10155000028470BD70B5002400220023058C4FF674
:10156000FF6635400584028C8388848B4FF68F7527
:101570002C404FF6FC752C400D882C434FF6FF5540
:101580002A408D894FF6FF7606EA05252A434D88C5
:1015900006EA05252A430B4DA84202D00F4DA8426A
:1015A00038D14FF2FF752A40CD894FF6FF7606EA13
:1015B00005252A434FF6FF352A408D8806EA052582
:1015C0002A4319E0000001400004004000080040E8
:1015D000000C0040001000400014004000040140D6
:1015E0000040014000440140004801400018004014
:1015F000001C0040002000404EF6FF752B404DF6C9
:10160000FF752B400D8A06EA05152B434D8A06EA25
:1016100005152B43838084838D68C563028470BD68
:1016200070B5002200230024058C4EF6FF7635406D
:101630000584038C8488828B48F6FF752A404FF618
:10164000FF452A400D884FF6FF7606EA05252A4316
:101650004DF6FF752B408D8906EA05352B434D88E5
:1016600006EA05352B43FE4DA84202D0FD4DA842A7
:1016700008D14BF6FF752C400D8A4FF6FF7606EA2F
:1016800085152C43848082838D680564038470BD36
:10169000002101804180818081608181C18101823E
:1016A0004182704770B50346002000241846183068
:1016B00001258D40ACB21D8CA5431D8409B10829BC
:1016C0000AD100EB610005684FF68F763540056062
:1016D0000568154305600FE00D1FC5F34E0528444E
:1016E000056848F6FF763540056005684FF6FF76D9
:1016F00006EA02263543056070BD41637047816389
:101700007047C1637047016470470A460021018B2E
:101710004FF68F7319401143018370470A46002129
:10172000018B48F6FF7319404FF6FF7303EA02235B
:101730001943018370470A460021818B4FF68F734E
:1017400019401143818370470A460021818B48F676
:10175000FF7319404FF6FF7303EA02231943818395
:1017600070470A460021018B4FF6F7731940114369
:10177000018370470A460021018B4FF2FF73194025
:101780004FF6FF7303EA02231943018370470A46A9
:101790000021818B4FF6F773194011438183704705
:1017A0000A460021818B4FF2FF7319404FF6FF73F9
:1017B00003EA02231943818370470A460021018B03
:1017C0004FF6FB7319401143018370470A4600210D
:1017D000018B4FF6FF3319404FF6FF7303EA0223E4
:1017E0001943018370470A460021818B4FF6FB7332
:1017F00019401143818370470A460021818B4FF6BF
:10180000FF3319404FF6FF7303EA02231943818324
:1018100070470A460021018B4FF67F731940114330
:10182000018370470A460021018BC1F30E014FF678
:10183000FF7303EA02231943018370470A4600211C
:10184000818B4FF67F7319401143818370470A469D
:101850000021818BC1F30E014FF6FF7303EA0223CF
:101860001943818370470A460021018C4FF6FD73AE
:1018700019401143018470470A460021018C4FF63C
:10188000F77319401143018470470A460021018C07
:101890004FF6DF7319404FF6FF7303EA0213194343
:1018A000018470470A460021018C4FF67F7319406E
:1018B0004FF6FF7303EA02131943018470470A4687
:1018C0000021018C4FF6FF5319404FF6FF7303EAD6
:1018D00002231943018470470A460021018C4FF20C
:1018E000FF7319404FF6FF7303EA02231943018483
:1018F00070470A460021018C4DF6FF7319404FF6E0
:10190000FF7303EA023319430184704730B50023A3
:1019100001248C40A3B2048C9C430484048C02FAFE
:1019200001F5ADB22C43048430BD30B5002304244E
:101930008C40A3B2048C9C430484048C02FA01F50D
:10194000ADB22C43048430BD828B4FF2FF331A407A
:101950008283828B4FF6FF7303EA01231A4382834B
:101960007047F0B50C461546002100220026078C72
:101970004EF6FF7C07EA0C070784818B028C4FF63A
:10198000FF7707EA043640F6FF4739404FF6FF7706
:1019900007EA052739434FF6FF7707EA033739434C
:1019A00045F6FF773A4046F480573A4381830284F4
:1019B000F0BD828B4FF6F3731A408283828B0A4309
:1019C00082837047F0B50C461546002100220026A0
:1019D000078C4FF6FF6C07EA0C070784818B028C9B
:1019E0004FF6FF7707EA04264FF60C7739404FF69B
:1019F000FF7707EA03172F4339434FF2FF573A4067
:101A000046F480773A4381830284F0BD028B4FF223
:101A1000FF331A400283028B4FF6FF7303EA012360
:101A20001A4302837047F0B50C4615460021002288
:101A30000026078C4FF6EF7C07EA0C070784018B22
:101A4000028C4FF6FF7707EA041640F6FF4739404D
:101A50004FF6FF7707EA033739434FF6FF7703E086
:101A6000000001400004014007EA052739434FF612
:101A70005F773A4046F010073A4301830284F0BD95
:101A8000028B4FF6F3731A400283028B0A430283E0
:101A90007047F0B50C46154600210022068C4FF623
:101AA000FE773E400684018B028C4FF60C76314067
:101AB0007E1C06EA03162E4331434FF6F57632407C
:101AC00044F00106324301830284F0BD70B505463F
:101AD0000C46208850B92389A28861882846FFF7E0
:101AE000D8FFE1882846FFF7CBFF25E020880428AF
:101AF0000AD12389A28861882846FFF794FFE188EC
:101B00002846FFF783FF17E0208808280AD1238999
:101B1000A28861882846FFF755FFE1882846FFF72D
:101B200048FF09E02389A28861882846FFF719FF4A
:101B3000E1882846FFF708FF70BD00210180418041
:101B4000012181800021C180018170472DE9F04190
:101B500005460C4600260127608808B9022600E0E9
:101B60000026A088012801D1022700E00127208853
:101B7000A0B92389A28861882846FFF78AFFE188F7
:101B80002846FFF77DFF23893A4631462846FFF76E
:101B90004AFFE1882846FFF739FF13E02389A2882E
:101BA00061882846FFF73FFFE1882846FFF72EFFB0
:101BB00023893A4631462846FFF76BFFE1882846DD
:101BC000FFF75EFFBDE8F0810146486B70470146B4
:101BD000886B70470146C86B70470146086C7047B8
:101BE0000A884B881A438B881A43CB881A430B897F
:101BF0001A434B891A438B891A43A0F84420704733
:101C00000021018041808180C180018141818181E9
:101C1000704731B1B0F8442042F40042A0F84420AB
:101C200005E0B0F84420C2F30E02A0F8442070474B
:101C300021B1828842F00402828004E082884FF65B
:101C4000FB731A408280704721B1828842F0010202
:101C5000828004E082884FF6FE731A4082807047CB
:101C60001AB183890B43838102E083898B4383818B
:101C700070478182704702460020138A0B400BB1E7
:101C8000012000E000207047CA430282704730B54F
:101C90000246002000230024158A05EA01039589E5
:101CA00005EA010413B10CB1012000E0002030BDB1
:101CB000CA430282704741EA0203A0F848307047E5
:101CC0001AB183890B43838102E083898B4383812B
:101CD000704721B1828842F00802828004E0828845
:101CE0004FF6F7731A408280704701894FF6F872F9
:101CF0001140018170470A46002101894FF68F7318
:101D0000194011430181704730B504460D462946FC
:101D10002046FFF7F0FF208940F00700208130BD0A
:101D20002DE9F04104460D4616461F46602D06D1AA
:101D30003B46012231462046FFF775FE05E03B4653
:101D4000012231462046FFF7A4FE29462046FFF730
:101D5000D2FF208940F007002081BDE8F08130B536
:101D60000C4600210189C9B24FF6FF7505EA03252B
:101D7000154325432943018130BD2DE9F041054636
:101D80000E4617469846002443463A4631462846B2
:101D9000FFF7E5FF2C894FF6F870044044F0070484
:101DA0004FF68F70044044F070042C81BDE8F08140
:101DB000F0B504460D4616461F463B4632462946B8
:101DC0002046FFF7CCFF208940F480402081F0BD01
:101DD00082884FF68F731A40828082880A438280FD
:101DE000704702894FF6F8731A40028102890A434C
:101DF0000281704702894FF67F731A40028102897F
:101E00000A4302817047F0B50C4615461E46002174
:101E1000002200230189028B038C4FF6F8773940AA
:101E200021434FF6FC473A4040F201173A434FF640
:101E3000DD773B404FF6FF7707EA06172F433B431A
:101E4000018102830384F0BD21B1828842F08002C7
:101E5000828004E082884FF67F731A408280704748
:101E6000A0F850107047000010B50446FA488442AC
:101E700008D101211020FFF700F900211020FFF701
:101E8000FCF857E0F548844209D101214804FFF7E6
:101E9000E3F800214FF40030FFF7DEF84AE0F048A5
:101EA000844209D101218804FFF7D6F800214FF4BC
:101EB0008020FFF7D1F83DE0EA48844209D10121B2
:101EC000C804FFF7C9F800214FF40020FFF7C4F859
:101ED00030E0E548844209D101210805FFF7BCF84C
:101EE00000214FF48010FFF7B7F823E0DF48844269
:101EF00008D101212020FFF7C0F800212020FFF7A2
:101F0000BCF817E0DA48844209D101218807FFF7BD
:101F1000A3F800214FF08040FFF79EF80AE0D54873
:101F2000844207D101214005FFF796F800216005A2
:101F3000FFF792F810BD2DE9FF4705460E46002435
:101F4000A14600BFA046B08900B100BF2C8A24F48E
:101F50004054F08804432C82AC8941F20C608443E5
:101F6000B08831890843718908430443AC81AC8A45
:101F700024F44074B0890443AC826846FEF7FDFE49
:101F8000B548854202D0B948854202D1DDF80C90AF
:101F900001E0DDF80890A88900F4004040B109EBA9
:101FA000C90000EB091031684900B0FBF1F707E008
:101FB00009EBC90000EB091031688900B0FBF1F7AB
:101FC0006420B7FBF0F004012009642101FB1078C4
:101FD000A88900F4004040B1322000EBC800B0FBFB
:101FE000F1F000F00700044308E0322000EB081095
:101FF0006421B0FBF1F000F00F0004432C81BDE838
:10200000FF874FF41651016000218180C18001815A
:102010000C21418100218181704710B502460020CA
:10202000108A20F470600B884C8823438C882343EB
:10203000CC8823431843108210BD002101804180C9
:102040008180C180704721B1828942F4005282812F
:1020500004E082894DF6FF731A4082817047028B3B
:1020600002F47F420283028B0A430283704721B14C
:10207000828942F40042828103E08289C2F30E0227
:102080008281704721B1828A42F40062828204E038
:10209000828A4FF2FF731A4082827047C1F30802AE
:1020A0008280704701468888C0F308007047028A22
:1020B0004FF6F0731A400282028A0A430282704786
:1020C00021B1828942F00202828104E082894FF6C6
:1020D000FD731A408281704782894FF2FF731A4064
:1020E000828182890A4382817047028A4FF6DF73B8
:1020F0001A400282028A0A430282704721B1028A90
:1021000042F48042028204E0028A4BF6FF731A40D6
:1021100002827047818941F001018181704721B1BC
:10212000828A42F00802828204E0828A4FF6F773C4
:102130001A4082827047028BD2B20283028B42EA3B
:1021400001220283704721B1828A42F020028282FA
:1021500004E0828A4FF6DF731A408282704721B111
:10216000828A42F01002828204E0828A4FF6EF7384
:102170001A4082827047828A4FF6FB731A4082822D
:10218000828A0A438282704721B1828A42F0020227
:10219000828204E0828A4FF6FD731A408282704781
:1021A0001AB1838A0B43838202E0838A8B43838242
:1021B0007047F0B50346002400260025002040F6B5
:1021C0006A17B94200D100BF1846C1F3421401F0AA
:1021D0001F06012707FA06F5012C01D10C3004E097
:1021E000022C01D1103000E014301AB107682F43DF
:1021F000076002E00768AF430760F0BD02460020B9
:10220000B1F5007F00D100BF13880B400BB1012056
:1022100000E00020704701F40072B2F5007F00D1A9
:1022200000BFCA430280704770B5024600240023F5
:102230000025002040F66A16B14200D100BFC1F36C
:10224000421501F01F03012606FA03F3012D13D1F5
:102250009689334017E00000001001400044004020
:1022600000480040004C0040005000400014014075
:1022700000780040007C0040022D02D1168A3340D5
:1022800001E0968A33400C12012606FA04F41688FF
:10229000344013B10CB1012000E0002070BD10B536
:1022A0000022002340F66A14A14200D100BF0A12A6
:1022B00001249440A3B2DC43048010BD10B5044651
:1022C0006FF00400FEF7E8FAE11704EB5171C1F377
:1022D000C701394A11701046007800EB4001C1EB8C
:1022E000C0104FF6FF7101EAC0003449088010BDEC
:1022F0000146314A12784A434FF0E0235A610022E6
:102300009A611A46126942F001021A6100BF4FF049
:10231000E022106900F001021AB100F48032002AB4
:10232000F5D04FF0E022126922F001024FF0E023D5
:102330001A6100229A6170470146204A12884A4376
:102340004FF0E0235A6100229A611A46126942F066
:1023500001021A6100BF4FF0E022106900F0010293
:102360001AB100F48032002AF5D04FF0E022126951
:1023700022F001024FF0E0231A6100229A617047B7
:1023800070B504464FF4077094FBF0F0C6B24FF4FA
:10239000077094FBF0F100FB114085B205E04FF4AB
:1023A0000770FFF7C9FF701EC6B2002EF7D115B136
:1023B0002846FFF7C1FF70BDB8000020BA0000201A
:1023C00000BF704700BFFB4A128802F04002002A9B
:1023D000F9D0C2B2F74B1B1D1A8070471FB50446D7
:1023E00001210846FEF79AFD07220921F248FEF76F
:1023F00082FB07220A21F048FEF77DFB02208DF8C0
:102400000C0000208DF80E004FF4C06002900120F7
:102410008DF80F0002208DF80D0002A9E648FEF7A6
:10242000DFFA01211020FEF7D3FD00940020ADF863
:102430000C000C20ADF80A000020ADF80800ADF843
:102440000600ADF804006946DC48FFF774FD012181
:10245000DA48FFF7F8FD012240F22551D748FFF78F
:10246000A8FE25208DF80C0001208DF80F00022019
:102470008DF80D0000208DF80E0003A8FEF7BFF9BF
:102480001FBD10B50446012C06D1012240F2255192
:10249000CA48FFF78EFE05E0002240F22551C748EA
:1024A000FFF787FE10BD1FB5044601210820FEF787
:1024B00035FD07220521C248FEF71DFB0722062134
:1024C000BF48FEF718FB02208DF80C0000208DF8A5
:1024D0000E006020029001208DF80F0002208DF880
:1024E0000D0002A9B648FEF77BFA01214804FEF769
:1024F0005EFD00940020ADF80C000C20ADF80A0041
:102500000020ADF80800ADF80600ADF804006946FB
:10251000AC48FFF710FD0121AA48FFF794FD002207
:1025200040F22551A748FFF744FE26208DF80C0005
:1025300001208DF80F008DF80D0000208DF80E00A1
:1025400003A8FEF75CF91FBD10B5044621469D485F
:10255000FFF779FD10BD1FB5044601210220FEF7EB
:10256000DDFC07220A219848FEF7C5FA07220B2155
:102570009548FEF7C0FA02208DF80C008DF80D008A
:1025800000208DF80E0001208DF80F0080020290CF
:1025900002A98D48FEF724FA02208DF80C000120D4
:1025A0008DF80F00C002029002A98748FEF718FAC2
:1025B00001218804FEF7FBFC00940020ADF80C001C
:1025C0000C20ADF80A000020ADF80800ADF80600B8
:1025D000ADF8040069467D48FFF7ADFC01217B485A
:1025E000FFF731FD002240F225517848FFF7E1FD69
:1025F00027208DF80C0001208DF80F008DF80D00BC
:1026000000208DF80E0003A8FEF7F9F81FBD10B5E5
:102610000446012C06D1012240F225516B48FFF7F8
:10262000C8FD05E0002240F225516848FFF7C1FDD2
:1026300010BD1FB5044601210420FEF76FFC0822DF
:102640000A216348FEF757FA08220B216048FEF77B
:1026500052FA02208DF80C0000208DF80E004FF485
:102660004060029001208DF80F0002208DF80D00CF
:1026700002A95748FEF7B4F90121C804FEF797FCF8
:1026800000940020ADF80C000C20ADF80A000020EA
:10269000ADF80800ADF80600ADF8040069464548FD
:1026A000FFF749FC01214348FFF7CDFC012240F22E
:1026B00025514048FFF77DFD34208DF80C000120A6
:1026C0008DF80F0000208DF80D008DF80E0003A886
:1026D000FEF795F81FBD10B50446012C06D1012266
:1026E00040F225513348FFF764FD05E0002240F237
:1026F00025513048FFF75DFD10BD1FB5044601218F
:102700000420FEF70BFC01210820FEF707FC08223D
:102710000C212F48FEF7EFF9082202212848FEF786
:10272000EAF902208DF80C0000208DF80E004FF41D
:102730008050029001208DF80F0002208DF80D00CE
:1027400002A92348FEF74CF90420029002A91C4874
:10275000FEF746F901210805FEF729FC0094002048
:10276000ADF80C000C20ADF80A000020ADF8080010
:10277000ADF80600ADF8040069461648FFF7DBFB2C
:1027800001211448FFF75FFC002240F22551114857
:10279000FFF70FFD35208DF80C0001208DF80F009C
:1027A0008DF80D0000208DF80E0003A8FEF727F825
:1027B0001FBD0000004C004000000240001001401E
:1027C000000C024000440040000402400048004069
:1027D000000802400050004010B50446012C06D10C
:1027E000012240F225514A48FFF7E3FC05E00022B0
:1027F00040F225514648FFF7DCFC10BD70B5044699
:102800000D4629462046FFF749FC00BF802120469F
:10281000FFF7F4FC0028F9D070BD70B505460C46F2
:1028200004E021782846FFF7E9FF641C207800289F
:10283000F7D170BD1FB5044601210420FEF76EFBE1
:10284000082206213348FEF756F9082207213148AD
:10285000FEF751F902208DF80C008DF80D000020D4
:102860008DF80E0001208DF80F004020029002A983
:102870002848FEF7B5F802208DF80C0001208DF8ED
:102880000F008020029002A92248FEF7A9F801213A
:102890002020FEF79DFB00940020ADF80C000C20DA
:1028A000ADF80A000020ADF80800ADF80600ADF85C
:1028B000040069461848FFF73EFB01211648FFF760
:1028C000C2FB012240F225511348FFF772FC47205A
:1028D0008DF80C0001208DF80F008DF80D00002000
:1028E0008DF80E0003A8FDF78AFF1FBD10B5044642
:1028F000012C06D1012240F225510748FFF759FC6F
:1029000005E0002240F225510348FFF752FC10BDBC
:102910000050004000080240001401400F480068C9
:1029200070470E49096801430C4A11600C490A7846
:102930000978491C0A4B19700A4941F822001946C6
:102940000978052902DB00211A46117070470349F6
:1029500009688143014A116070470000BC000020F3
:10296000C00000202C01002000B58BB00121022006
:10297000FEF72EFB01210420FEF7D0FA01210220F0
:10298000FEF7CCFA032208217C48FEF7B4F80322B4
:1029900009217A48FEF7AFF84FF440700990022001
:1029A0008DF8280003208DF8290000208DF82A00DA
:1029B00001208DF82B0009A97048FEF711F8782046
:1029C000099001208DF8280003208DF829000020AF
:1029D0008DF82A0001208DF82B0009A96848FDF721
:1029E000FFFF63200790A720ADF818000020ADF886
:1029F0002000ADF81A0006A96248FEF790FC70208E
:102A0000ADF804000120ADF806000020039002207C
:102A1000ADF8100001A95B48FEF79CFD01A95948DB
:102A2000FEF7FEFD01215748FFF7F3F8082155484E
:102A3000FEF7ADFE08215348FEF7B2FE01215148D2
:102A4000FEF7D8FC01214F48FEF7F2FC00214D486B
:102A5000FEF757FE00214B48FEF755FE01220821E4
:102A60004748FEF73DF8002210214548FEF738F8A8
:102A7000002220214248FEF733F80122402140483D
:102A8000FEF72EF80BB000BD70B505460C465A2C6B
:102A900004DD0220FFF745FF5A2407E014F15A0F26
:102AA00004DA0220FFF73DFF6FF059040220FFF720
:102AB0004EFF25B3012D45D1002C0EDB012208214C
:102AC0002F48FEF70DF8002210212D48FEF708F8D8
:102AD00021462C48FEF717FE0DE000220821284869
:102AE000FDF7FEFF012210212548FDF7F9FF2146E1
:102AF0002448FEF708FE60B22349087022E0002C4B
:102B00000EDB002220211E48FDF7EAFF01224021B2
:102B10001B48FDF7E5FF21461A48FEF7F2FD0DE0E0
:102B2000012220211648FDF7DBFF00224021144836
:102B3000FDF7D6FF21461348FEF7E3FD60B21349C7
:102B4000087000BF00BF70BD014629B1012907D13F
:102B50000D4890F9000070470C4890F90000FAE722
:102B60000020F8E770B504460D4621460020FFF727
:102B70008BFF29460120FFF787FF70BD0008024048
:102B80000004024000040140C2000020C1000020F7
:102B900010B50446A521FE48FFF780FA00BF80214A
:102BA000FB48FFF72BFB0028F9D01521F848FFF769
:102BB00075FA00BF8021F648FFF720FB0028F9D006
:102BC000B4F5165F06D0B4F5E13F08D0B4F5E12FB7
:102BD0000FD109E00121EE48FFF760FA0AE0022177
:102BE000EB48FFF75BFA05E00321E948FFF756FAE7
:102BF00000E010BD00BFB4F5165F16D10121E44816
:102C0000FFF74CFA00BF8021E148FFF7F7FA0028F0
:102C1000F9D0BB21DE48FFF741FA00BF8021DC4834
:102C2000FFF7ECFA0028F9D032E0B4F5E13F16D115
:102C30000221D748FFF732FA00BF8021D448FFF7BE
:102C4000DDFA0028F9D0BC21D148FFF727FA00BFF0
:102C50008021CF48FFF7D2FA0028F9D018E0B4F568
:102C6000E12F15D10321CA48FFF718FA00BF8021D0
:102C7000C748FFF7C3FA0028F9D0BD21C448FFF7C1
:102C80000DFA00BF8021C248FFF7B8FA0028F9D03A
:102C900000BFAEE710B52DED048BB0EE408AA52144
:102CA000BB48FFF7FBF900BF8021B948FFF7A6FA40
:102CB0000028F9D02521B648FFF7F0F900BF8021A0
:102CC000B348FFF79BFA0028F9D018EE100A02F07B
:102CD000C7FC41EC190B9FEDAF0B53EC102B02F02E
:102CE0002FFC16D10021AA48FFF7D8F900BF802198
:102CF000A748FFF783FA0028F9D0CA21A448FFF7B4
:102D0000CDF900BF8021A248FFF778FA0028F9D05A
:102D100076E0B7EE000AB4EE408AF1EE10FA16D172
:102D200001219B48FFF7BAF900BF80219848FFF7BF
:102D300065FA0028F9D0CB219548FFF7AFF900BF1D
:102D400080219348FFF75AFA0028F9D058E0B0EEF6
:102D5000000AB4EE408AF1EE10FA16D102218C4836
:102D6000FFF79CF900BF80218948FFF747FA002848
:102D7000F9D0CC218648FFF791F900BF8021844823
:102D8000FFF73CFA0028F9D03AE0B1EE000AB4EEC1
:102D9000408AF1EE10FA16D103217D48FFF77EF943
:102DA00000BF80217A48FFF729FA0028F9D0CD2109
:102DB0007748FFF773F900BF80217548FFF71EFAC7
:102DC0000028F9D01CE0B2EE000AB4EE408AF1EE21
:102DD00010FA15D104216E48FFF760F900BF802179
:102DE0006B48FFF70BFA0028F9D0CE216848FFF7AF
:102DF00055F900BF80216648FFF700FA0028F9D096
:102E0000BDEC048B10BD10B5A5216148FFF746F954
:102E100000BF80215E48FFF7F1F90028F9D0652155
:102E20005B48FFF73BF900BF80215948FFF7E6F9FF
:102E30000028F9D001215648FFF730F900BF802162
:102E40005348FFF7DBF90028F9D00B215048FFF772
:102E500025F900BF80214E48FFF7D0F90028F9D0AE
:102E600010BD2DE9F04F04460F461546DDF82480CD
:102E7000002081460022002142F2107C6426012BB2
:102E800025D100BF1FE034F810A0AAEB050A00EE20
:102E900090AAB8EEE01AA7EB050A00EE90AAF8EEA9
:102EA000E00A81EE200ADFED3D0A60EE200AFCEE2A
:102EB000E00A10EE90AADFF8E8B00BF800A000F1ED
:102EC000010A1FFA8AF0B0F5407FDCDD39E0C3BBB0
:102ED000002033E034F810A0E24504DDF7EE000AEC
:102EE000B0EE600A1AE034F810A0B24504DADFED63
:102EF0002D0AB0EE600A11E034F810A0AAEB060A21
:102F000000EE90AAB8EEE01AACEB060A00EE90AA2A
:102F1000F8EEE00AC1EE201AB0EE610ADFED1F0AFA
:102F200060EE200AFCEEE00A10EE90AADFF870B026
:102F30000BF800A000F1010A1FFA8AF0B0F5407FFB
:102F4000C8DD002142E000223AE001F1010A4FEA27
:102F50004A1AAAF1010AAAEB020ADFF844B01BF8E8
:102F60000AA002EB411BDFF840E00EF80BA001F1D4
:102F7000010A4FEA4A1AAAF1010AAAEB020ADFF88B
:102F800020B01BF80AA0DFF824B03BF81AA00FE02D
:102F900000500040000000000000E03F00007F43C0
:102FA00040010020000000004104002054570008A8
:102FB00002EB411B28F81BA002F1010A1FFA8AF25A
:102FC000202AC2DB01F1010A1FFA8AF11829BADBB3
:102FD000BDE8F08F10B588B0044601210C20FDF744
:102FE0009DFF01210805FDF7E2FF08220C21A348FF
:102FF000FDF781FD08220221A148FDF77CFD042098
:10300000069002208DF81C0003208DF81D00002082
:103010008DF81E0001208DF81F0006A99848FDF7C5
:10302000DFFC4FF48050069006A99448FDF7D8FCC9
:1030300002940020ADF80C00ADF80E00ADF81000C1
:10304000ADF814000C20ADF8120002A98D48FEF76F
:1030500072FF01218B48FEF7F6FF012240F2255155
:103060008848FFF7A6F835208DF8040001208DF878
:10307000050002208DF8060001208DF8070001A848
:10308000FDF7BDFB08B010BD38B540F225517D48B5
:10309000FFF7CAF800280DD07A48FFF703F8C4B24A
:1030A0007948008858B95A2C05D177480088401CC7
:1030B00075490880DBE0002073490880D7E072483A
:1030C000008801280BD15A2C05D16F480088401C7C
:1030D0006D490880CBE000206B490880C7E06A4852
:1030E0000088022805D168480088401C664908808D
:1030F000BDE065480088032805D163480088401C6E
:1031000061490880B3E06048008804285DDB5E48C0
:10311000008840F20361884257DC5B49088800EB75
:10312000D0714910A0EB410111B95848047046E034
:103130005549088800EBD0714910A0EB41010129E5
:103140003DD15249097801EB04218AB24E490988E0
:10315000081F00EBD07149104D4B23F811204A494C
:103160000988081F00EBD07149101A4632F8111077
:10317000484A128891420ADD43490988081F00EB3A
:10318000D07149101A4632F81110424A11803E4956
:103190000988081F00EBD07149103D4A32F8111020
:1031A0003D4A128891420ADA37490988081F00EB24
:1031B000D0714910364A32F81110374A118032481E
:1031C0000088401C3049088051E02F48008840F2B8
:1031D0000461884204D02C480088491C88422FD1C1
:1031E0002C4800882D4908802B4800882C490880ED
:1031F0002549088800EBD0714910A0EB410111B9B5
:103200002248047016E02049088800EBD07149106C
:10321000A0EB410101290DD11C49097801EB0421E2
:103220008AB219490988081F00EBD0714910184B60
:1032300023F8112014480088401C1349088016E028
:1032400000201449088044F62060134908800020BB
:103250000D490880134801230090114802880F4847
:1032600001880B48FFF7FDFD01200F49087040F26F
:1032700025510448FFF713F838BD0000000802404C
:10328000000C024000500040CA000020D000002086
:10329000440A0020CC000020CE000020C400002002
:1032A000C600002046100020C800002010B588B0DD
:1032B000044601210420FDF731FE0121C804FDF779
:1032C00076FE4FF40060069002208DF81D008DF808
:1032D0001C0001208DF81F0006A96148FDF780FB46
:1032E00008220A215E48FDF706FC08220B215C48F3
:1032F000FDF701FC02940020ADF80C00ADF80E00C3
:10330000ADF81000ADF814000C20ADF8120002A9C1
:103310005448FEF710FE34208DF8040000208DF88C
:10332000050002208DF8060001208DF8070001A895
:10333000FDF765FA012240F225514A48FEF739FFB0
:1033400001214848FEF77FFE08B010BD70B540F27D
:1033500025514548FEF768FF00287FD040F22551EF
:103360004148FEF79CFF4048FEF79CFEC5B23F482F
:10337000007870B93C2D0CD13D4801780078401C94
:103380003B4A10703B4820F8115001203749087023
:1033900064E03648007801280ED1022D0CD1344863
:1033A00001780078401C324A1070324820F81150E1
:1033B00002202E49087051E02C480078022810D1D4
:1033C0002B4801780078401C294A1070294820F8C1
:1033D000115010460078102840DD03202349087062
:1033E0003CE022480078032829D1224880892249DC
:1033F00008602048C089214908601E48007E00F00E
:103400007F001F4908701B48807E1E4908701948BC
:10341000007F1D4908701748807F1C4908700020F4
:103420001249087012490870002405E00020114973
:1034300021F81400601CC4B2142CF7DB0EE000204D
:103440000A4908700A490870002405E0002009496B
:1034500021F81400601CC4B2142CF7DB002070BDEE
:1034600000080240004C004000440040D70000200B
:10347000D600002010170020540000205800002023
:103480002C0000202D0000202E0000202F00002006
:1034900010B54FF4E130FFF75EF810BD10B50446EB
:1034A00021463648FEF7FAFD00BF80213348FEF77B
:1034B000A5FE0028F9D010BD70B505460E460024C3
:1034C00004E0285DFFF7EAFF601C84B2B442F8DB39
:1034D00070BD70B50446002504E0605DFFF7DEFFB7
:1034E000681CC5B2605D0028F7D170BD10B50246FA
:1034F000012000E050430B1EA1F10101FAD110BDE3
:103500002DE9F04106460C46002512E0601B411EE5
:103510000A20FFF7EBFFB6FBF0F00A21B0FBF1F257
:1035200001FB120000F130073846FFF7B7FF681CB7
:10353000C5B2A542EADBBDE8F0810FB400B59BB08F
:103540001DA8019002A8019A1C9900F067FB0020B9
:10355000019002A8FFF7BDFF1BB05DF814FB0848FF
:103560000078012804D10020054908700120704727
:103570000020FCE703480078704700000048004046
:10358000D9000020D800002000B58BB001210846EA
:10359000FDF71EFD01210846FDF7C0FC01220821B0
:1035A0009248FDF7A8FA01220B219048FDF7A3FAF3
:1035B0004FF41060099002208DF8280003208DF848
:1035C000290000208DF82A0001208DF82B0009A980
:1035D0008648FDF705FA44F29F10ADF81800002068
:1035E000ADF81A00C72007900020ADF8200006A90A
:1035F0007F48FDF794FE7020ADF804000120ADF87F
:1036000006000220ADF810000020ADF81400039071
:1036100001A97748FDF718FF0020039001A974481D
:10362000FDF7FEFF08217248FEF79BF80121704864
:10363000FDF7E0FE01216E48FDF7FAFE01216C481E
:10364000FEF7E7FA01210420FDF7B1FC0121022079
:10365000FDF764FC022208216648FDF74CFA0222BD
:1036600009216448FDF747FA4FF4407009900220A1
:103670008DF8280003208DF8290000208DF82A00FD
:1036800001208DF82B0009A95A48FDF7A9F942F24B
:10369000CF00ADF818000020ADF81A00C720079041
:1036A0000020ADF8200006A95348FDF738FE702031
:1036B000ADF804000120ADF806000220ADF81000BE
:1036C00001A94D48FDF746FF01A94B48FDF7A8FFAA
:1036D00008214948FEF75BF808214748FEF760F8E3
:1036E00001214548FDF786FE01214348FDF7A0FE74
:1036F0000BB000BD70B504460D4634B1012C09D1A4
:1037000029463B48FDF7FFFF05E029463848FDF70D
:10371000F4FF00E000BF00BF70BD10B52DED028BBF
:1037200004469FED360AB0EE408A8CB1012C1FD1C1
:103730002F48FEF752FA00EE100AB8EE400AB0EE3B
:10374000408A9FED2F0AC8EE000AB0EE608A10E0B2
:103750002748FEF739FA00EE100AB8EE400AB0EE3C
:10376000408A9FED270AC8EE000AB0EE608A00E0AA
:1037700000BF00BFB0EE480ABDEC028B10BD70B5B3
:1037800005460C4655B9192C03D10020FFF7B2FFAE
:103790000FE014210020FFF7ADFF0AE0052C04D153
:1037A00005210120FFF7A6FF03E012210120FFF70A
:1037B000A1FF70BD10B514210020FFF7E0FF41F21A
:1037C0007070FEF7DDFD12210120FFF7D8FF10BD5C
:1037D00010B505210120FFF7D2FF41F27070FEF70E
:1037E000CFFD19210020FFF7CAFF10BD00000240E5
:1037F00000000140000402400008004000000000FA
:10380000000048431CB501215020FDF787FB4FF411
:10381000FE70009001208DF8040000208DF8060055
:1038200003208DF8050001208DF8070069466748E0
:10383000FDF7D6F84FF40060009069466448FDF744
:10384000CFF8012211026148FDF74AF901228021D7
:103850005E48FDF745F9012240215C48FDF740F93B
:10386000012220215948FDF73BF901221021574838
:10387000FDF736F9012208215448FDF731F90122FC
:1038800004215248FDF72CF90122D1025048FDF7DE
:1038900027F91CBD10B5044604F0010030B1002228
:1038A0004FF480714948FDF71BF904E00122110231
:1038B0004648FDF715F904F0020028B100228021E6
:1038C0004248FDF70DF904E0012280213F48FDF751
:1038D00007F904F0040028B1002240213B48FDF71D
:1038E000FFF804E0012240213848FDF7F9F804F020
:1038F000080028B1002220213448FDF7F1F804E047
:10390000012220213148FDF7EBF804F0100028B126
:10391000002210212D48FDF7E3F804E001221021D8
:103920002A48FDF7DDF804F0200028B10022082124
:103930002648FDF7D5F804E0012208212348FDF7C9
:10394000CFF804F0400028B1002204211F48FDF701
:10395000C7F804E0012204211C48FDF7C1F804F077
:10396000800030B100224FF400611948FDF7B8F82B
:1039700004E00122D1021648FDF7B2F8C820FEF794
:10398000FFFC012211021148FDF7AAF80122802153
:103990000E48FDF7A5F8012240210C48FDF7A0F8DC
:1039A000012220210948FDF79BF801221021074838
:1039B000FDF796F8012208210448FDF791F801224D
:1039C00004210248FDF78CF810BD000000180240E9
:1039D000001002401CB501210220FDF79FFA0120D2
:1039E00000908DF8040000208DF8060002208DF86C
:1039F000050000208DF8070069460A48FCF7F0FF33
:103A000001210848FDF76AF81CBD10B501210548E1
:103A1000FDF762F810BD10B501210248FDF75EF810
:103A200010BD00000004024010B54FF4E130FEF775
:103A300001FF10BD10B5044621463648FEF72EFBA7
:103A400000BF80213348FEF7D9FB0028F9D010BD14
:103A500070B505460E46002404E0285DFFF7EAFF36
:103A6000601C84B2B442F8DB70BD70B5044600251A
:103A700004E0605DFFF7DEFF681CC5B2605D0028F2
:103A8000F7D170BD10B50246012000E050430B1E77
:103A9000A1F10101FAD110BD2DE9F04106460C4615
:103AA000002512E0601B411E0A20FFF7EBFFB6FB6A
:103AB000F0F00A21B0FBF1F201FB120000F1300737
:103AC0003846FFF7B7FF681CC5B2A542EADBBDE880
:103AD000F0810FB400B59BB01DA8019002A8019A17
:103AE0001C9900F09BF80020019002A8FFF7BDFF91
:103AF0001BB05DF814FB08480078012804D10020B1
:103B000005490870012070470020FCE70348007851
:103B10007047000000140140DB000020DA000020A4
:103B200010B54FF41650FEF784FD10BD10B50446D5
:103B300021463648FEF7B2FA00BF80213348FEF72F
:103B40005DFB0028F9D010BD70B505460E46002477
:103B500004E0285DFFF7EAFF601C84B2B442F8DBA2
:103B600070BD70B50446002504E0605DFFF7DEFF20
:103B7000681CC5B2605D0028F7D170BD10B5024663
:103B8000012000E050430B1EA1F10101FAD110BD4C
:103B90002DE9F04106460C46002512E0601B411E4F
:103BA0000A20FFF7EBFFB6FBF0F00A21B0FBF1F2C1
:103BB00001FB120000F130073846FFF7B7FF681C21
:103BC000C5B2A542EADBBDE8F0810FB400B59BB0F9
:103BD0001DA8019002A8019A1C9900F01FF800206E
:103BE000019002A8FFF7BDFF1BB05DF814FB084869
:103BF0000078012804D10020054908700120704791
:103C00000020FCE70348007870470000004C0040AB
:103C1000DD000020DC000020704700001CB50C46D1
:103C2000064B7B4469460090204600F0C4F80446E9
:103C30000020694600F0D2F820461CBDB701000004
:103C4000704770477047704770B5044685690068D3
:103C5000C10601D5302600E02026C00707D070BD80
:103C6000D4E9012130469047206A401C20626D1E35
:103C7000F6D570BD70B5044685690078C00707D1D8
:103C800070BDD4E9012120209047206A401C2062A9
:103C90006D1EF6D570BD09684A0501D540B2704762
:103CA000C905FCD500B2704709684A0501D5C0B204
:103CB0007047C905FCD580B2704770B50C46054603
:103CC000012A05D02878800600D5EA69002302E0A1
:103CD000012305E05B1C934202D2E05C0028F9D18D
:103CE000A869E618C01AA861286A184428622846FC
:103CF000FFF7AAFF04E0D5E9012114F8010B904772
:103D0000B442F8D32846FFF7B5FF70BD2DE9F04166
:103D10000646002410687529314616A510D0FFF715
:103D2000BAFF002802DA404213A507E031688A078B
:103D300001D512A502E0490704D511A5012401E02F
:103D4000FFF7B2FF00210A2206F1240709E0B0FBC9
:103D5000F2FCB0FBF2F302FB1C0030307854184642
:103D6000491C0028F3D123462A463046BDE8F041DD
:103D700000F061BA000000002D0000002B000000E0
:103D80002000000011680268006A530501D5087020
:103D90000AE0D30501D5088006E0130603D5C21753
:103DA000C1E9000200E008600120704701694A1C77
:103DB00002610878704700B58FB0CDE9013100216C
:103DC000059105497944CDE903101146684600F094
:103DD00029F90FB000BD0000E5FFFFFF0A6802F8F7
:103DE000010B0A60704700002DE9FF5F15468A4607
:103DF0000446DFF8AC80F8440027D8E900103E46BE
:103E0000CDE9001010E03AF816106A4602A800F05A
:103E100025FE411C07D02178890603D5E2693918AF
:103E200091420DD80744761C2078800602D5E069BF
:103E3000B84205DDAE42E6DB3AF816000028E2D1D2
:103E4000A069C01BA0612046FFF7FEFED8E9001064
:103E5000CDE90010002017E03AF818106A4602A8D1
:103E600000F0FCFDB0F1FF3F81460BD000250DF1C5
:103E7000080B05E0D4E901211BF8050090476D1CF3
:103E80004D45F7D308F10100B0428046E4DB206ADB
:103E9000384420622046FFF7EDFEBDE8FF9F00009A
:103EA0005A1B00002DE9F0418046D21D22F0070286
:103EB0000025D2E90002F52915A614D0011E72F1E1
:103EC000000106DA0023D0EB030063EB020211A627
:103ED00008E0D8F800108B0701D50FA602E04907CB
:103EE00001D50EA601251146002408F1240704E09F
:103EF00000F05CF930323A55641C50EA0102F7D107
:103F00002B46324621464046BDE8F04100F093B9C9
:103F1000000000002D0000002B0000002000000029
:103F200030B4002100F1240408E002F00705D208B3
:103F3000303542EA4372DB086554491C52EA0305F6
:103F4000F3D10468002310A2250707D5A40600D4E6
:103F500021B1C46901230DA2641EC46130BC00F00C
:103F60006AB910B5044621461068FFF79DFE024667
:103F70002046BDE810400023D2E7D21D22F0070101
:103F8000D1E90023CCE70000000000003000000071
:103F9000F0B40D460188090502D5214C7C4402E0AD
:103FA0001F4C7C440E34002100F1240608E002F08E
:103FB0000F071209E75D42EA03721B097754491C97
:103FC00052EA0307F3D102780023120704D5702DBB
:103FD00006D009B1022311342246F0BC00F02BB9FF
:103FE00001231034F8E770B504460D4621461068E9
:103FF000FFF75AFE024629462046BDE870400023DE
:10400000C6E7D21D22F00703D3E90023C0E7036807
:10401000126843F0200303600823C3610023B7E75D
:10402000BC1900002DE9F05F894604464FF0000AF4
:10403000DFF874B1FB44C0F820A02046E16888474F
:10404000002874D0252806D0D4E901219047206AA1
:10405000401C2062F1E700265F462046E168884761
:104060002028054607DB312D05D2781910F8200CE1
:1040700008B10643F1E7B00701D526F00406C4F8FD
:104080001CA00027C4F818A02A2D09D0284601F04A
:1040900017FA38B304EB8708303DC8F8185019E018
:1040A00059F8041B204604EB87029161E1688847B8
:1040B000012F054618D1E069002820DA26F02006F5
:1040C0001DE0D8F8180000EB800005EB4000303808
:1040D000C8F818002046E1688847054601F0F0F965
:1040E0000028EED1012F0AD02E2D08D12046E168FC
:1040F00088477F1C0546022F46F02006C4DBA069D6
:10410000002803DA404246F00106A061F00701D022
:1041100026F010066C2D0BD0682D09D04C2D39D00F
:104120006A2D35D0742D35D07A2D33D016E038E095
:10413000E1682F4620468847B842054609D16C2FD2
:1041400026D04FF48060E168064320468847054644
:1041500004E06C2F1AD04FF4807006430DB3A5F124
:104160004100192802D8203546F400664A462946FF
:10417000204626604E46FCF741F880B101280BD05E
:10418000F61D26F0070000F1080956E74020E4E795
:104190008020D8E70020D6E706F104094DE728463D
:1041A00052E7206ABDE8F09F4C19000030B5B0F12D
:1041B0000A024FEA900E71F100034EEA817EB0EBE5
:1041C0000E0061EB91014FEA101E4EEA017E10EBEA
:1041D0000E0041EB11114FEA102E4EEA016E10EB6A
:1041E0000E0041EB11214FEA104E4EEA014E10EB4A
:1041F0000E0041EB1141401841F100014FEAD0009F
:1042000040EA41704FEAD10110EB80054FEA81048A
:1042100044EA907444EB01046D1944EB0404521B0E
:10422000A3414FF0000348BF0A3200D530BD401C07
:1042300041F1000130BD2DE9F0470D469946924607
:10424000044600F124080168880604D5E06921F0DD
:104250001001216000E00120A84201DD471B00E0C1
:104260000027A1697A1902EB0900081AA0612078D9
:10427000C00602D42046FFF7E7FC002608E0D4E998
:1042800001211AF806009047206A401C761C206223
:104290004E45F4DB2078C0060AD52046FFF7D4FC53
:1042A00006E0D4E9012130209047206A401C2062BA
:1042B000381EA7F10107F4DC07E0D4E9012118F862
:1042C00005009047206A401C2062281EA5F10105C8
:1042D000F3DC2046FFF7CEFC2078000602D5022052
:1042E000BDE8F0870120FBE770472DE9FF4F0C4642
:1042F0001E464FF0FF378BB0D2E90001DDF8608039
:104300000A908A46C1F30A5505B93D460021084680
:104310004FF00000BAF1000F00F4400005DA00EBA6
:1043200080004FF4400101EA50004FEA9059B9F182
:10433000010F00DDB9460A9850EA4A000ED044F653
:104340001050A5F2FF3545432F14B8F1000F1ED0D1
:104350007542291E1EDDC9F100021CE0B8F1010FF3
:104360004FF0000001D0302103E0F24305E021547A
:10437000401CB042FBDB30460022002121540B9947
:10438000C1F80880C1E900200FB0BDE8F08FBD1B67
:104390006D1CDEE74A4600DA694206A800F0F0FB31
:1043A00006AB93E8070003AB83E8070050460A9981
:1043B00000F0A6FC8DE80700A0F500501F38009023
:1043C0000398002D0ADD42F21F014A4608440023EB
:1043D00003A90390684600F00FFF09E0A0F5005024
:1043E0004A461F38002303A90390684600F019FFCE
:1043F0008DE807000004000C03D04FF0FF304108A7
:1044000000E01046B8F1000F03D0002200921546DC
:104410001EE0751E05D4FFF7C9FE303262556D1ED1
:10442000F9D5B3460122084302D000227F1C04E0E4
:104430002078302801D100227F1E002A099784D0DD
:104440001DE0112D07DAFFF7B1FE303262556D1C09
:1044500050EA0102F5D1084302D00098C8B10EE03D
:104460000021681E05E0235C625C63542254401EF8
:10447000491C8142F7DBAB46A81B401E0990002077
:1044800004F80B000B98099AC0F80880C0E9002BCB
:104490007AE711264FF0000857E72DE9F04F8846DC
:1044A0000446D21D22F0070191B0D1E90001CDE907
:1044B0000A0100F0EDFF02460B98C00F01D02D203D
:1044C00007E02068810701D52B2002E0202101EAC6
:1044D000C000032A099001D0072A05DB03464146A4
:1044E000204600F00DFB0BE12078800601D5E06945
:1044F00000E00620B8F1650F814606D0B8F1660FDE
:1045000018D0B8F1670F70D131E00020B9F1110F68
:10451000009001DB112301E009F101030AAA01A9BE
:104520000CA8FFF7E2FEDDE90C70002609F1010599
:10453000834647E001204B4600904FF000470AAA0F
:1045400001A90CA8FFF7D1FEDDE90DB00C995D467D
:10455000002610B909F101000D18B9EB050003D4CC
:10456000C0F1FF3609F10105A5EB09002BE0B9F117
:10457000010F01DA4FF001090020B9F1110F00908D
:10458000484601DD112300E003460AAA01A90CA850
:10459000FFF7ABFEDDE90C704D4600268346207820
:1045A00000070AD4AB4500DA5D4601A8012D04DD01
:1045B000411911F8011C302907D04F4502DA17F1D3
:1045C000040F04DA012082460FE06D1EEEE7002F93
:1045D00002DCED1B3E4403E0781CA84200DD7D1C9C
:1045E000B81B00F1010A4FF000472078000703D400
:1045F000AA4501DB4FF0FF3A0021B7F1004F0DF162
:1046000043088DF8431024D002202B23002F01DA19
:104610007F422D230A21021EA0F1010000DC5FB1C0
:1046200097FBF1FC97FBF1F201FB1C7C17460CF1A8
:10463000300C08F801CDEEE7A8F1010003702188E5
:10464000090501D5452100E06521A0F1010800F828
:10465000011C09980FA9A1EB0807FF1D00B101205B
:10466000411901EBEA70A1693844081A401EA061A3
:104670002078C00602D42046FFF7E6FA099828B150
:10468000D4E901219047206A401C20622078C006AE
:1046900022D52046FFF7D8FA1EE0002E04DBB345F2
:1046A00002DD01A8805D00E03020D4E901219047BF
:1046B000206A401C2062761CAAF101005FEA000A11
:1046C0000AD100F019FAC0680168405CD4E9012100
:1046D0009047206A401C2062281EA5F10105DCDC01
:1046E00007E0D4E9012118F8010B9047206A401C2B
:1046F0002062381EA7F10107F3DC2046FFF7BAFA63
:10470000032011B041E600002DE9F04F04460D46AC
:10471000D21D22F0070089B0D0E9009748463946FB
:1047200000F0B6FE0246F80F01D02D2307E0206806
:10473000810701D52B2302E0202101EAC0038DF877
:1047400020300BB1012000E00020032A824601D076
:10475000072A04DB2946204600F0D2F93FE1207801
:10476000800601D40D2500E0E569C7F30A560D2D3A
:1047700049DA00214FEA175B08464FF00000002F8E
:1047800000F4400007DA00EB80004FF4400100EB3A
:10479000D07001EA60008115012901DD4FF0FF3181
:1047A00000224FEA850CBCF1180F06D31346ACF17A
:1047B00018004FF08052C24003E04FF4801323FAF8
:1047C0000CF30CF10C0CBCF1200F04D3ACF1200C59
:1047D00009FA0CF001E007FA0CF000294FF000484C
:1047E00001DD18B90FE00ED140450CD319EB0209D9
:1047F0005F4121B9404502D19F4329EA0209BBEB41
:10480000175F00D0761C2088000502D57B487844CD
:1048100002E07A487844193808AA302302F80A30AE
:10482000037C0AF10101002E0AF1020A53546A4680
:1048300002DC4FF0300101E04FF031014FF0010890
:104840008DF8001002D0A6F2FF3603E059EA4701C6
:1048500000D06B4E002D02DC2178090704D54FF003
:1048600002082E218DF80110C44600210BE0C7F389
:1048700003433F01C35C491C6D1E02F80830052943
:1048800008F1010801DA002DF1DC00210CE000EB59
:104890001973491C1B786D1E082902F808304FEA6D
:1048A000091908F1010801DA002DF0DC21688B06F6
:1048B00002D516E0A8F10108E04505DD02EB08038A
:1048C00013F8013C302BF5D0B8F1000F09DD02EBF5
:1048D000080313F8013C2E2B03D1090701D4A8F1DA
:1048E0000108002D05DD3E2102F808106D1E08F1BB
:1048F0000108407C002E02F8080008F1010804DAE3
:104900002D20764202F8080002E02B2002F8080071
:104910000A214FF47A70864208F101080BDB96FBFE
:10492000F0F3303302F8083096FBF0F308F1010899
:1049300000FB136601E0642E0CDB642096FBF0F3B1
:10494000303302F8083096FBF0F308F1010800FB61
:10495000136601E00A2E06DB96FBF1F0303002F818
:10496000080008F1010896FBF1F001FB10603030FF
:1049700002F80800A16908F1010808EB050202EB42
:104980000A00081AA0612078C00602D42046FFF76A
:104990005BF9216A08AE01EB0A00206204E0D4E969
:1049A000012116F8010B9047BAF1010AF7D22078DD
:1049B000C00602D52046FFF747F96E4609E016F813
:1049C000010B3E280FD0D4E901219047206A401CFA
:1049D0002062B8F10108F2D22046FFF74BF909B086
:1049E0000320BDE8F08F206A2844206203E0D4E968
:1049F0000121302090476D1EEBD3F8E7961100009F
:104A000002FCFFFF10B5436913B1AFF3008001E072
:104A1000FFF753F9012010BD127800F124010A704C
:104A200000224A700122EDE711684FF0FF32E9E7FA
:104A300010B5436913B1AFF3008001E0FFF7D4F97B
:104A4000012010BD128800F1240182840022C2845A
:104A50000122EDE711684FF0FF32E9E770B5164625
:104A60000C46054600F040F8036893F80101012860
:104A700006D0FF2C0FD8185D68B101202C7070BDD6
:104A8000D3F807013246214603F2071303442846B0
:104A9000BDE8704018474FF0FF3070BD754600F01C
:104AA000EBF8AE4605006946534620F00700854600
:104AB00018B020B5FBF78CFEBDE820404FF0000693
:104AC0004FF000074FF000084FF0000B21F00701F6
:104AD000AC46ACE8C009ACE8C009ACE8C009ACE839
:104AE000C0098D467047000010B500F005F8001DA4
:104AF00010BD00BF090A0000004870475817002089
:104B00002DE9F0411F46044603260168072A01F4F7
:104B1000006004DB08B116A505E016A503E008B1A6
:104B200015A500E015A521F010002060A069C01EA9
:104B3000A0610FB1401EA0612046FFF785F84FB17C
:104B4000D4E9012138469047206A401C2062C01CED
:104B5000206206E0206AFAE7D4E9012115F8010B8A
:104B60009047761EF8D22046FFF784F8BDE8F08122
:104B70004E414E006E616E00494E4600696E660001
:104B80002DE9F047814616468AB0354878440DC86D
:104B90008DE80D0032487844801C03AC0DC884E8D1
:104BA0000D0041F69B300844372190FBF1F290FB59
:104BB000F1F5A5F1800501FB12041B3C02D564420E
:104BC000012000E00020DFF898A080460027FA448A
:104BD000AAF1BE0A0EE0E0070AD03246684607EBAB
:104BE000470101230AEB810100F01BFB8DE8070060
:104BF00064107F1C002CEED1194F7F44AE3F19E0AA
:104C0000E80715D007EB04100DF1180A90E80E0024
:104C10008AE80E00C068F04201D198190890324627
:104C2000012306A903A800F0FCFA03AB83E8070000
:104C30006D10641C002DE3D14FF00103324669462C
:104C4000B8F1000F03A802D000F0D6FA01E000F09E
:104C5000E8FAC9E90001C9F808200AB0BDE8F08700
:104C6000A80E000010B50446AFF300802046BDE852
:104C70001040FBF728BB00000048704738170020A1
:104C80004FF0013C50F8042B51F8043B9A4221D1DB
:104C9000A2EB0C03934313EACC1317D150F8042B67
:104CA00051F8043B9A4215D1A2EB0C03934313EA4B
:104CB000CC130BD150F8042B51F8043B9A4209D184
:104CC000A2EB0C03934313EACC13DBD04FF00000AC
:104CD000704700BFD01A01BAB1FA81F101F0180192
:104CE00022FA01F0CB40C1F12001DBB2C0B2C01A00
:104CF0002CFA01F3D11A914311EAC311E6D170479E
:104D00005FEA400C08BF91F0000F4FEA8C234FEA96
:104D1000C12243EA51514FEA1C5018BF00F5F04040
:104D20004FEA300018BF41F000415FEA6C5C00F0D0
:104D30002980BCF1FF3F08BF40F080407047130C52
:104D400006BF12044FF0100C4FF0000C130E04BFFE
:104D500012020CF1080C130F04BF12010CF1040C29
:104D6000930F04BF92000CF1020CD30F04BF52004A
:104D70000CF1010C11464FF00002A0F11F00A0EB56
:104D80000C00704711F0004F08BF704731F0004130
:104D90003FF4D5AF0B0C06BF09044FF0100C4FF0D9
:104DA000000C0B0E04BF09020CF1080C0B0F04BF22
:104DB00009010CF1040C8B0F04BF89000CF1020CEB
:104DC000CB0F04BF49000CF1010CCCF12003A0EB88
:104DD0000C0022FA03F302FA0CF241EA030100F19B
:104DE0000100704720F07F4C80EA030023F07F47EA
:104DF000ACEB070303F57C5300F0004003F1FF0325
:104E00002DE980494FEA154B09B44FEA144325EACE
:104E10000B4E24EA03480FF2042606EB1327490839
:104E20003E785FEA320203FB0667C7F5000707FB1F
:104E300006F64FEA54374FEAD64606F1020607FB5C
:104E4000066CCCF1005C4FEA1C472CEA074C07FBD0
:104E500006F40CFB06F504EB15464FEA961634BF34
:104E600000204FF000404FEAD13706FB07FC4FEA25
:104E70001C4C0CFB0BF7D21B03FB0CF761EB07017F
:104E80000CFB0EF7B0EB074072EB17420CFB08F778
:104E900034BFA2EB0742B2EB074261EB17414FEA86
:104EA0000C444FEA910706FB07FC4FEA1C4C0CFB35
:104EB0000BF7B0EBC74072EB573203FB0CF734BF74
:104EC000A2EBC742B2EBC74261EB57310CFB0EF7C6
:104ED000B0EBC70072EB57720CFB08F734BFA2EBC4
:104EE000C702B2EBC70261EB5771039F4FEA8161C2
:104EF00041EA921104EBCC044FEAD1374FEA8262C7
:104F000006FB07FC42EA90124FEA80604FEA1C4C15
:104F10000CFB0BF7D21B03FB0CF761EB07010CFB3F
:104F20000EF7B0EB074072EB17420CFB08F734BFEB
:104F3000A2EB0742B2EB074261EB17414FEA8C55F7
:104F40004FEA910704EB9C2406FB07FC4FEA1C4C3C
:104F50000CFB0BF7B0EBC74072EB573203FB0CF7BF
:104F600034BFA2EBC742B2EBC74261EB57310CFB37
:104F70000EF7B0EBC70072EB57720CFB08F734BFAB
:104F8000A2EBC702B2EBC70261EB577115EB4C25E0
:104F90004FEA816141EA92114FEA82624FEAD137CA
:104FA00042EA901206FB07FC44F100044FEA8060DD
:104FB0004FEA1C4C0CFB0BF7D21B03FB0CF761EB0D
:104FC00007010CFB0EF7B0EB074072EB17420CFB2E
:104FD00008F734BFA2EB0742B2EB074261EB17417F
:104FE00015EB1C154FEA813141EA92414FEA8232BA
:104FF00042EA90424FEA80304FEA0C7644F10004D6
:1050000048EA03434EEA0B484FF0000EB2EB080C9F
:1050100071EB030724BF624639464EEB0E0E4FF08C
:10502000000B0018524149414BEB0B0BB2EB080C43
:1050300071EB03077BF1000B24BF624639464EEB50
:105040000E0E4FF0000B0018524149414BEB0B0B79
:10505000B2EB080C71EB03077BF1000B24BF624637
:1050600039464EEB0E0E51EA020718BF46F0010614
:1050700016EB0E7655F1000254F1000103D5BDE8A0
:105080008901BDE80088BDE88901BDE80048B6197E
:10509000524141EB0101A3F10103704780807F7E03
:1050A0007D7C7B7A7978777676757473727171709E
:1050B0006F6E6E6D6C6C6B6A6A6968686766666550
:1050C0006464636362616160605F5F5E5E5D5D5CDE
:1050D0005C5B5B5A5A59595858575756565555554F
:1050E0005454535352525251515050504F4F4F4EAF
:1050F0004E4D4D4D4C4C4C4B4B4B4A4A4A494949FD
:10510000484848474747474646464545454444443E
:10511000444343434342424242414141002B9C4667
:1051200030D477002BD01CB54FEA370703B44FF0CB
:1051300010004FF01001BAF1000F06D0BCF1000FC3
:10514000DCBF40F0080040F008014FF000000FBC49
:10515000BDE810400BF1010BBBF1010F08BF5FEA86
:10516000170722BF12F1010211F101014FF00041B6
:1051700043F1000300F0004043EA00007047F9D318
:105180005708D0E746EA064613F1400F4FEA1646A5
:105190001FDD13F1200FDFBF16430A460021203325
:1051A0005B42BED0C3F1200746EA064602FA07F783
:1051B0004FEA164646EA0706C3F1200722FA03F231
:1051C00001FA07F721FA03F14FF0000342EA070260
:1051D000A7E746EA020646EA06464FEA164646EAC8
:1051E0000106BCBF46EA0646360C4FF000034FF0FE
:1051F00000024FF0000194E72DE9804C9A46934657
:1052000070B491E8380007C831EA400C48BF34EA6E
:10521000430C03D5FFF7E6FDFFF780FFF0BCBDE8C8
:10522000008C2DE9804C9A46934670B491E8380082
:1052300007C810F0804F08BF13F0804F03D100F073
:1052400005F8FFF76BFFF0BCBDE8008C20F07F474E
:1052500080EA030023F07F4C07EB0C03A3F57C539B
:1052600000F00040A3F1FE0392F0000F00F0B380C5
:1052700095F0000F00F077802DE901494FEA1140C9
:105280004FEA144621EA004800FB06FC24EA0647E0
:1052900008FB06F607FB08F800FB07F718EB0648C3
:1052A0004CEB164C4FEA124B18EB07484FEA1546E9
:1052B0004CEB174022EA0B4E0BFB06FC25EA064797
:1052C0000EFB06F607FB0EFE0BFB07F71EEB064E6A
:1052D0004CEB164C4FF000061EEB074E4CEB174BF9
:1052E00018EB0B0840F1000018EB0E0B58EB000810
:1052F00040F100008F1A4FF000013CBFC943661B0C
:1053000014BFB5EB040C00213CBFC943F61B4FEAA8
:1053100017444EEA8E0E27EA04454FEA1C4704FB69
:1053200007622CEA074C05FB07F70CFB05F604FBAC
:105330000CFC16EB074642EB174216EB0C4642EB11
:105340001C421BEB060658EB0202414146EA9E0650
:1053500001D5BDE80189B619524141EB0101A3F124
:105360000103BDE801894FEA14454FEA114724EAD9
:10537000054621EA074C05FB07F406FB07F70CFB83
:1053800006F105FB0CFC11EB074144EB17444FEA17
:10539000124711EB0C4144EB1C4422EA074C05FB7D
:1053A00007F206FB07F70CFB06F605FB0CFC16EBF9
:1053B000074642EB174216EB0C4642EB1C456A18B7
:1053C00054F1000148BF7047B619524141EB010149
:1053D000A3F10103704795F0000F37D04FEA114257
:1053E0004FEA144721EA024624EA074C02FB07F180
:1053F00006FB07F70CFB06F402FB0CFC14EB07445E
:1054000041EB17414FEA154714EB0C4441EB1C41AB
:1054100025EA074C02FB07F506FB07F70CFB06F62F
:1054200002FB0CFC16EB074645EB174516EB0C464A
:1054300045EB1C42121951F1000148BF7047B619E3
:10544000524141EB0101A3F1010370474FEA1445BA
:105450004FEA114724EA054621EA074C05FB07F10C
:1054600006FB07F70CFB06F24FF0000605FB0CFCF1
:1054700012EB074241EB174112EB0C4251EB1C417E
:1054800048BF7047921841EB0101A3F10103704737
:1054900003B401984100009850EAC12018BF0420CD
:1054A0004A0D18BF40F0010040F2FF72B2EB515FAD
:1054B00008BF40F00200012808BF052002B0704775
:1054C00030380A2801D201207047002070470000C0
:1054D00010B500290AD00878002807D0054878447C
:1054E000FFF7CEFB002801D0002010BD0248784411
:1054F00010BD0000920500008A05000010B50029CB
:105500000AD00878002807D005487844FFF7B8FB90
:10551000002801D0002010BD0248784410BD0000D2
:10552000820500007A050000491058BFC1F14041D2
:105530005B1058BFC3F140438B42EFF300807047CC
:1055400051EA030C17D41CF5801F58BFBCF5801F0F
:1055500000F10680994218BF704708BF904270471B
:1055600007D711F5801F58BF13F5801F19D4994232
:105570007047894270471CF5801F08D5BCF5801F15
:10558000F7D58B4218BF704708BF824270474FF46F
:10559000001C1CEB410F38BF1CEB430F01D28B42A8
:1055A000704770B500F008F8922449004FF00051A0
:1055B0004FF08053FFF7B8BF0EF1020E2EF0030E2E
:1055C0005EF8046B364205D4012A43EB030515F55A
:1055D000001F12D8012841EB010C1CF5001F0CD84C
:1055E0000ED14FEAD17C15F5001F0CEB4C0C0CF1E1
:1055F000020C08BF4CEBD37C04E04FF0080C01E038
:105600004FEAD37C0CEB4C0526FA05F606F00706AC
:10561000B6F1040C06D20EEB860CBDE870404CF0DF
:10562000010C6047DFE80CF0090B02024FF000416B
:105630004FF00000A1F5002170BD19461046012869
:1056400051EB010418BFD4F5001484BF002001F011
:10565000004170BD0808A0F500114FEA3101704704
:1056600043004FEAD30C4FEA3C0C43401FBF4007B6
:105670000CF1605113F0FE4F70471CF0006F03D126
:1056800000200CF0004170470CF0004343EA5070DA
:1056900010B540EACC0000F00EF800BF0000009208
:1056A0004FEA0001FFF7D6BF4FF000414FF0000076
:1056B000A1F5002170470EF1020E2EF0030E5EF8E8
:1056C000044B244204D44FEA4102B2F17F4F11D877
:1056D0004FEA4003B3F17F4F0CD80ED14FEAD07C94
:1056E000B2F17F4F0CEB4C0C0CF1020C08BF4CEBF1
:1056F000D17C04E04FF0080C01E04FEAD17C0CEBC8
:105700004C0324FA03F404F00704B4F1040C06D2A9
:105710000EEB840CBDE810404CF0010C6047DFE854
:105720000CF0070802024FF00040A0F5800010BD09
:105730000846420018BFD2F1807288BF00F00040D6
:1057400010BD4FF04070E1EE100A7047FEF7A5BEA5
:10575000FEF7DABF0F400F400F40104010381038EE
:105760001038103810301030103010281028102841
:1057700010281020102010201018101811181118BF
:105780001110111011101108110811081100110049
:10579000110011001100310031005100720072003F
:1057A0009200B200B200D200F200F2001201320107
:1057B00052015201720192019201B201D201F30130
:1057C000F301130233025302530273029302B30232
:1057D000D302D302F30213033303330353037303DC
:1057E0009403B403D403D403F4031404340454041E
:1057F000740474049404B404D404F4041405340547
:105800003405540554057405740573057305730553
:105810007205720572057105910591059005900557
:105820008F058F058F058E05AE05AE05AD05AD055F
:10583000AD05AC05AC05AB05CB05CB05CA05CA0566
:10584000CA05C905C905C805E805E805E705E7056E
:10585000E605E605E605E505E50504060406040695
:10586000030603060206020601062106210620069B
:10587000200620062006200E200E400E4016401660
:10588000401E401E40264026402E602E6036603668
:10589000603E603E603E60466046604E804E805690
:1058A0008056805E805E80668066806EA06EA07688
:1058B000A076A07EA07EA086A086A08EC08EC09678
:1058C000C096C09EC09EC0A6C0AEC0AEE0B6E0B658
:1058D000E0BEE0BEE0C6E0C6E0CEE0CEE0D600D757
:1058E00000DFE0DEC0DEA0DE80DE80DE60E640E6D7
:1058F00020E600E6E0E5C0E5A0E580E560E540E5FE
:1059000020E500E5E0E4C0E4A0E480E460E440ECED
:1059100020EC00ECE0EBC0EBA0EB80EB60EB40EBAD
:1059200020EB00EBE0EAC0EAA0EA80EA60EA40EAA5
:1059300020F200F2E0F1C0F1A0F180F160F140F15D
:1059400000F1E0F0C0F0A0F080F060F040F020F056
:105950000000FFFF00000000000000003031323383
:105960003435363738394142434445464030580093
:1059700030313233343536373839616263646566C5
:105980004030780004000008000000000000000221
:105990000001000010303132333435363738396188
:1059A000626364656678700030313233343536377F
:1059B00038394142434445465850000002400000F7
:1059C000000000A00000000005400000000000C82A
:1059D000000000000C4000000000409C000000009F
:1059E000194000000020BCBE000000003440000050
:1059F000BFC91B8E00000004B5400000504BCFD043
:105A00006607E2CF010000006C4100003E8251AA0F
:105A1000DFEEA73401000000D9420000DCB5A0E2AF
:105A20003A301F97FFFFFFFFB4450000FD25A0C8D7
:105A3000E9A3C14FFFFFFFFFFF3F00000000008010
:105A400000000000FF3F0000000000800000000098
:105A50009C5B000800000020E0000000C40100087A
:105A60007C5C0008E0000020B81C0000E001000899
:105A70001C00000043000000F8FFFFFF0C000000C6
:105A80000E0000000F0000002E00000010010000BA
:105A900043000000F8FFFFFF00404040404040400E
:105AA00040404141414141404040404040404040F1
:105AB0004040404040404040400502020202020295
:105AC00002020202020202020220202020202020E4
:105AD00020202002020202020202909090909090F8
